:100000000C94D2000C94A81A0C94811A0C945A1ACD
:100010000C94331A0C94FA000C94FA000C940C1AF9
:100020000C94FA000C94FA000C94CF1A0C94381B20
:100030000C94FA000C94FA000C94FA000C94FA0058
:100040000C94FA000C94FA000C94FA000C94FA0048
:100050000C94FA000C94FA000C94FA000C94C21957
:100060000C94FA000C94FA000C94FA000C94FA0028
:100070000C94FA000C94FA000C94FA000C94FA0018
:100080000C947A1D0C94FA000C94FA000C94FA006B
:100090000C94FA000C94FA000C94FA000C94FA00F8
:1000A0000C94FA000C94FA000C94FA000000000082
:1000B0002300260029002C002F0003080B00020259
:1000C00002000009040000010202000005240010E3
:1000D000010524010101042402060524060001078C
:1000E00005810310004009040100020A0000000716
:1000F00005020240000007058302400000040309D6
:100100000412010002EF0201409A230C8000010159
:100110000203014164616672756974004665617429
:100120006865722033327534000000000024002717
:10013000002A002D00300000000000250028002BC0
:10014000002E00310004040404040304050202022A
:100150000204030202020206060606060604040260
:100160000202040404080201104080401020408074
:1001700040800802040180402010020110801020FD
:100180004040200000000200090F000003040100AD
:100190000C00000000000000000000000000000053
:1001A00000001A1E11241FBECFEFDAE0DEBFCDBF64
:1001B00024E0ACEAB2E001C01D92A537B207E1F736
:1001C00012E0A0E0B1E0ECEDFEE402C005900D927B
:1001D000AC3AB107D9F710E0C2EDD0E004C02197E6
:1001E000FE010E941925C13DD107C9F70E94221FB7
:1001F0000C946C270C9400000F931F93CF93DF9304
:10020000C0E6D4E0E881F98180819181DC01169615
:100210000D911D912D913C91199744A155A166A175
:1002200077A1ED91FC910190F081E02D0995E88195
:10023000F98180819181DC011E960D911D912D9196
:100240003C91519744A155A166A177A1ED91FC91F4
:100250000280F381E02D0995E881F9818081918107
:10026000DC01ED91FC910284F385E02D41E050E04A
:1002700060E070E00995E881F98180819181DC017D
:100280001A960D911D912D913C911D9744A155A158
:1002900066A177A1ED91FC910280F381E02D099593
:1002A000E881F98180819181DC01ED91FC910284EA
:1002B000F385E02D4AE050E060E070E0DF91CF91FF
:1002C0001F910F9109949091ED02911103C08FEF4E
:1002D0009FEF08954FB7F89492E09093E9009091C2
:1002E000F200292F30E01216130614F421E030E05A
:1002F000232B29F084E68093EC028091F10099236E
:1003000039F02091F200211103C02BE62093E80080
:100310004FBF9923E1F290E008952FB7F89483E05E
:100320008093E9009091E800892F807295FF04C0C6
:100330009091F20080E4891B2FBF08958091E40220
:1003400081110DC082E08093E00284E08093E1029D
:100350001092E3021092E20281E08093E40280EEC8
:1003600092E0089581508F3008F047C0E82FF0E008
:10037000E454FE4F0C941925D901DD01CB01D101C4
:10038000D501FD01FD01FD01E001E601EA01EE01FB
:10039000F401FD01F801809180008F778093800047
:1003A0000895809180008F7DF9CF80918000877FB4
:1003B000F5CF84B58F7784BD089584B58F7DFBCF4D
:1003C000809190008F7780939000089580919000A5
:1003D0008F7DF9CF80919000877FF5CF8091C0000D
:1003E0008F778093C00008958091C0008F7DF9CFF2
:1003F0008091C200877F8093C20008951F93CF939E
:10040000DF93282F30E0F901ED57FE4F8491F90179
:10041000EC59FE4FD491F901EB5BFE4FC491CC2314
:10042000A9F0162F81110E94B201EC2FF0E0EE0F1F
:10043000FF1FE95CFE4FA591B4918FB7F894EC9142
:10044000111108C0D095DE23DC938FBFDF91CF91CF
:100450001F910895DE2BF8CFCF93DF9390E0FC013E
:10046000EC59FE4F24918B5B9E4FFC0184918823B5
:10047000C9F090E0880F991FFC01E75DFE4FA59140
:10048000B491FC01E95CFE4FC591D49161110DC09E
:100490009FB7F8948C91209582238C938881282390
:1004A00028839FBFDF91CF910895623051F49FB7A9
:1004B000F8943C91822F809583238C93E8812E2B96
:1004C000EFCF8FB7F894EC912E2B2C938FBFEACF00
:1004D0003FB7F8948091DC029091DD02A091DE029A
:1004E000B091DF0226B5A89B05C02F3F19F00196F9
:1004F000A11DB11D3FBFBA2FA92F982F8827BC017E
:10050000CD01620F711D811D911D43E0660F771FA4
:10051000881F991F4A95D1F708958F929F92AF92A5
:10052000BF92CF92DF92EF92FF926B017C010E940B
:1005300068024B015C01C114D104E104F104B9F07B
:100540000E946802681979098A099B09683E73400C
:100550008105910580F321E0C21AD108E108F10874
:1005600088EE880E83E0981EA11CB11CE4CFFF909A
:10057000EF90DF90CF90BF90AF909F908F900895B5
:1005800008954091CC025091CD022091CA02309141
:10059000CB0242175307B4F49091E8009570E1F351
:1005A0009091E80092FD19C08093F1008091CC02F7
:1005B0009091CD0201968F739927892B19F48EEFB4
:1005C0008093E8008091CC029091CD0201969093A7
:1005D000CD028093CC0281E0089580E00895EF92EF
:1005E000FF920F931F93CF93DF93F82E192FE62ED0
:1005F000042F81E0860F880F0E94C10283E00E94D1
:10060000C102CF2DD12FEC0EFD2EF11CCE15DF0532
:10061000B9F007FF13C0FE0184910E94C102182F98
:1006200080E00E94C102812321968111EFCFDF91EA
:10063000CF911F910F91FF90EF9008958881EDCF9A
:1006400081E0F5CFDF92EF92FF920F931F93CF934C
:10065000DF93D82E8A01EB017B01E40EF51ECE1547
:10066000DF0559F0D7FE12C0FE0184910E94C1023D
:1006700021968111F4CF0FEF1FEFC801DF91CF91C9
:100680001F910F91FF90EF90DF9008958881EECF3A
:100690000F931F93CF93DF931F92CDB7DEB782E006
:1006A000898342E450E06BEB70E080E80E94220313
:1006B0000E949E01DC0112960D911C9101151105FD
:1006C00089F0D801ED91FC910280F381E02DBE010B
:1006D0006F5F7F4FC801099597FD04C0F801008541
:1006E0001185ECCF89810F90DF91CF911F910F91F0
:1006F00008958F929F92AF92BF92CF92DF92EF9226
:10070000FF920F931F93CF93DF936C017B018A01BC
:1007100080917401882309F45BC08091ED028823E5
:1007200009F456C08091D00280FF05C08091E0009E
:1007300082608093E000E801B12C8AEFA82E93E05C
:10074000892E2AE3922E209711F4BB20D9F10E9422
:100750008D0181110AC0AA94AA20D1F161E070E054
:1007600080E090E00E948D02EECF8C171D0611F004
:100770000CF08C2F9FB7F8948092E9002091E8004C
:1007800025FD02C09FBFDFCF282F30E0C21BD30B57
:10079000F701815020F041914093F100FACFE20E31
:1007A000F31EBB2021F09092E800B12CEBCF80919A
:1007B000E80085FDE7CF9092E800BB24B394209732
:1007C00009F3F3CF84E68093CF02101611063CF0B4
:1007D00081E090E0F6019383828310E000E0C8019D
:1007E000DF91CF911F910F91FF90EF90DF90CF900D
:1007F000BF90AF909F908F900895CF93DF931F92FB
:10080000CDB7DEB76983DC01ED91FC910280F38105
:10081000E02D41E050E0BE016F5F7F4F09950F90E2
:10082000DF91CF91089583E08093E9008091F200F9
:10083000882319F08AE38093E80008950E948D01CF
:1008400090E00895FC018485958597FD05C02FEF04
:100850003FEF3587248708950C946301CF93DF938E
:10086000EC018C859D8597FF04C00E9463019D87E4
:100870008C878C859D85DF91CF910895FC018485BF
:10088000958597FD0BC09FB7F89482E08093E900AF
:100890008091F2009FBF90E0019608959FB7F89471
:1008A00082E08093E9008091F2009FBF90E008957C
:1008B00090E09C01359527952575880F991F8A7AB8
:1008C000282B30E0C9019595879595958795837379
:1008D000220F331F220F331F2C7C822B8295089509
:1008E000CB01BA0108950895089508954115510561
:1008F00061057105C1F04130510561057105C1F017
:100900004230510561057105C1F043305105610563
:100910007105C1F04730510561057105B9F06FEF00
:100920007FEFCB01089562E070E080E090E00895F1
:1009300063E070E080E090E0089561E070E080E0C6
:1009400090E0089560E070E0CB01089564E070E00D
:1009500080E090E008950895DB01CA018F3F2FEFFA
:100960009207A207B20749F120915E0124130DC03E
:10097000EAEBF0E0E4912FEF20935E01E13059F0D3
:1009800038F0E33071F0E43091F060E00C94FE0157
:1009900010926E00FACF20916F002D7F20936F0090
:1009A000F4CF209171002D7F20937100EECF209124
:1009B00072002F7B20937200E8CF08954F925F92D0
:1009C0006F927F928F929F92AF92BF92CF92DF925F
:1009D000EF92FF920F931F93CF93DF9300D000D03D
:1009E0001F92CDB7DEB74F3F8FEF580768077807E4
:1009F00059F0470158018901CA0120915E0124176D
:100A0000C9F02F3F09F47DC00F900F900F900F9009
:100A10000F90DF91CF911F910F91FF90EF90DF909A
:100A2000CF90BF90AF909F908F907F906F905F908E
:100A30004F900895EAEBF0E024912D8327FDE4CF59
:100A400061E00E942C028D81882321F09D819230EB
:100A500009F04DC12801712C612C60E079E08DE333
:100A600090E0A30198010E94FA2429833A834B83E2
:100A70005C8369017A0121E0C21AD108E108F1081A
:100A80008FEFC816D104E104F10409F00CF405C19C
:100A900060E271EA87E090E0A30198010E94FA24E5
:100AA00069017A0191E0C91AD108E108F1082D81A4
:100AB000223009F0C6C08FEFC816D104E104F1045A
:100AC00009F00CF4F2C068E478EE81E090E0A30154
:100AD00098010E94FA2469017A0191E0C91AD108AB
:100AE000E108F1082FEFC216D104E104F10411F07E
:100AF0000CF0BDC181149104A104B10409F484CFA8
:100B000053C140935E01EAEBF0E024912D832F3F27
:100B100009F47ACF213059F168F0233009F449C043
:100B2000243009F46CC02D8127FD6ECF61E00E9456
:100B30002C028CCF14BC15BC24B5226024BD25B575
:100B4000216025BD242F30E0F901EB5BFE4FE491DD
:100B5000F0E0EE0FFF1FE95CFE4F45915491F90163
:100B6000EC59FE4FE491E093B6021D8269CF1092DA
:100B700080001092810020918100286020938100E4
:100B800020918100216020938100242F30E0F90121
:100B9000EB5BFE4FE491F0E0EE0FFF1FE95CFE4FD0
:100BA00045915491F901EC59FE4FE491E093B5025F
:100BB00047CF1092900010929100209191002860F0
:100BC0002093910020919100216020939100242F87
:100BD00030E0F901EB5BFE4FE491F0E0EE0FFF1F18
:100BE000E95CFE4F459154915093C4024093C30277
:100BF000F901EC59FE4FE491E093C50221CF109228
:100C0000C0001092C1002091C10028602093C10053
:100C10002091C10021602093C100242F30E0F90110
:100C2000EB5BFE4FE491F0E0EE0FFF1FE95CFE4F3F
:100C300065917491F901EC59FE4FE491E093B4028F
:100C4000FFCE8FEFC816D104E104F10409F00CF4D3
:100C50004CC064E274EF80E090E0A30198010E9430
:100C6000FA2469017A0191E0C91AD108E108F10872
:100C70002D81222309F439C18FEFC816D104E10474
:100C8000F10411F008F03AC181149104A104B104F7
:100C900009F453C081E08D8387C081E02D8121114B
:100CA00004C095B5987F892B85BD2FEF3FEFA90133
:100CB00081149104A104B10409F076C09D819130A2
:100CC00009F43EC00CF0A0C091119ECEC7BC209389
:100CD000BF023093C0024093C1025093C202809180
:100CE0006E00826080936E008FCE82E0D7CF712C31
:100CF000612C60E079E08DE390E0A30198010E940F
:100D0000FA2469017A0181E0C81AD108E108F108E2
:100D1000C114D10491E0E906F10424F591E02D819C
:100D2000213089F580918100887F892B8093810013
:100D300081149104A104B104B9F52FEF3FEFA9018B
:100D4000D0928900C09288002093BB023093BC02ED
:100D50004093BD025093BE0280916F0082608093E9
:100D60006F0052CE64E274EF80E090E0A30198013E
:100D70000E94FA2469017A0181E0C81AD108E108C9
:100D8000F10893E0CCCF8D818330E1F48091910024
:100D9000887F892B809391002FEF3FEFA901811469
:100DA0009104A104B104B1F1D801AA0FBB1FA501A0
:100DB00094010E94BE2428EE33E040E050E00E94FF
:100DC000D8247CCF2D81243009F06FCF8091C100D1
:100DD000887F892B8093C1002FEF3FEFA9018114F9
:100DE0009104A104B10401F7C092CF002093B7028F
:100DF0003093B8024093B9025093BA0280917200C6
:100E000080648093720000CE8D81833019F084302D
:100E100059F3FACDD0929900C09298002093C6025F
:100E20003093C7024093C8025093C9028091710069
:100E3000826080937100E8CD84E09FEFC916D104F1
:100E4000E104F10409F008F42CCFC980DA80EB80CA
:100E5000FC809AE0F594E794D794C7949A95D1F7DB
:100E600081E0C81AD108E108F10885E01ACF64E2F0
:100E700074EF80E090E0A30198010E94FA246901D8
:100E80007A0191E0C91AD108E108F1082FEFC216E2
:100E9000D104E104F10409F008F407CF62E17AE734
:100EA00080E090E0A30192010E94FA2469017A0196
:100EB00081E0C81AD108E108F1089FEFC916D104F2
:100EC000E104F10409F008F415CE69E07DE380E067
:100ED00090E0A30192010E94FA2469017A0191E055
:100EE000C91AD108E108F1081CC083E02FEFC2162F
:100EF000D104E104F10409F008F4D3CE69E07DE304
:100F000080E090E0A30192010E94FA2469017A0135
:100F100081E0C81AD108E108F1089D81992309F4FC
:100F20008BCF8FEFC816D104E104F10409F008F467
:100F3000BCCEC980DA80EB80FC808AE0F594E7942F
:100F4000D794C7948A95D1F721E0C21AD108E10855
:100F5000F108ABCE9FB7F8948091B302882319F0C3
:100F600081508093B3028091B302811105C08CB58A
:100F70008F7B8CBD1092B2029FBF08958091B20208
:100F8000882361F09FB7F8942091B2028091B1025A
:100F9000213019F48DBB9FBF08958FBF0895FB01C9
:100FA000420F531F2417350759F081918EBD000061
:100FB0000DB407FEFDCF8EB5D9018D939D01F2CF03
:100FC0000895FC01248D958D8091B202882361F0F3
:100FD0008FB7F8943091B202313049F43DB3309379
:100FE000B1023DB33DBB8FBF2CBD9DBD0895809325
:100FF000B102FACF0C9468022FB7F8946091D8022E
:101000007091D9028091DA029091DB022FBF08958E
:101010004330510538F0440F551F44505109CA015F
:101020000197F1F70895CB01BA010C948D024F3F5F
:101030008FEF58076807780791F0453080F4E42F68
:10104000F0E04230A9F060F4413081F0E898EE0F12
:10105000FF1FED59FE4F80EC92E09183808308954D
:10106000433041F0443091F7EE98F1CFE998EFCF5B
:10107000EA98EDCFEB98EBCFEF92FF92D9014F3F7B
:101080008FEF580768077807B9F04530A8F4C70113
:10109000E42FF0E0EE0FFF1FED59FE4FB183A08368
:1010A000423051F160F44130D9F0809169008C7F79
:1010B000E82AE0926900E89AFF90EF9008954330A3
:1010C00041F1443091F720916A002F7C34E0880F81
:1010D000991F3A95E1F7822B80936A00EE9AECCF44
:1010E00020916900237F880F991F880F991F822BF9
:1010F00080936900E99AE0CF209169002F7C54E049
:10110000880F991F5A95E1F7822B80936900EA9A1C
:10111000D3CF209169002F7346E0880F991F4A951D
:10112000E1F7822B80936900EB9AC6CFCF93DF93D0
:101130004F3F8FEF58076807780759F150E0FA01E1
:10114000ED57FE4F8491FA01EC59FE4FD4914B5B61
:101150005E4FFA01C49170E060E0CC2399F08111F8
:101160000E94B201EC2FF0E0EE0FFF1FE455FF4F9D
:10117000A591B491EC91ED2391E080E009F490E029
:10118000692F782F072E000C880B990BDF91CF91D8
:10119000089560E070E0CB01F9CF0F93DB01CA0145
:1011A000602F8F3F2FEF9207A207B20719F00F9120
:1011B0000C94FE010F9108950F93DB01CA01602F7B
:1011C0008F3F2FEF9207A207B20719F00F910C94EF
:1011D0002C020F910895DC015E962C915E972223DC
:1011E00031F0ED91FC91048CF58DE02D099408957A
:1011F000DC015E962C915E97222331F0ED91FC91FB
:101200000488F589E02D09940895089587EE9FEFED
:10121000089580E0089587EE9FEF089580E0089597
:1012200087EE9FEF089560E070E0CB01089560E0E5
:1012300070E0CB01089560E070E088EC91EC0895D7
:1012400090E080E008950F931F93CF93DF93CDB785
:10125000DEB728970FB6F894DEBF0FBECDBF87EE7E
:101260009FEF28960FB6F894DEBF0FBECDBFDF917B
:10127000CF911F910F91089587EE9FEF089587EE0C
:101280009FEF089587EE9FEF089587EE9FEF0895F3
:1012900087EE9FEF089587EE9FEF089587EE9FEF0B
:1012A000089587EE9FEF089587EE9FEF089587EEEC
:1012B0009FEF0895DC01ED91FC910680F781E02D10
:1012C00060E009948F5D9E4FFC01808191810895BB
:1012D0004F925F926F927F928F929F92AF92BF9246
:1012E000DF92EF92FF920F931F93CF93DF93EC0166
:1012F000FC01EF5DFE4F0190F081E02D8081918136
:10130000DC01ED91FC910480F581E02D09958E01C1
:10131000085E1E4FF801808181113EC09E01255F4D
:101320003E4FF90180819181A281B381880F991F7D
:10133000AA1FBB1F862B80839183A283B383275F61
:101340003F4FF9014081518162817381842395234C
:10135000A623B72325503109F901408151816281CB
:10136000738184179507A607B70731F481E0D80188
:101370008C9319861A861886DF91CF911F910F9151
:10138000FF90EF90DF90BF90AF909F908F907F90F5
:101390006F905F904F900895D984FE01ED0DF11D7F
:1013A0003385288581E090E0022E01C0880F0A94E1
:1013B000EAF7662309F443C0832B83872F5F2887CE
:1013C0002830D1F68384912CB12CA12C30E020E080
:1013D00040E050E0BA01412C512C3201439497E097
:1013E000E92EF12CD301C201022E04C0880F991FEF
:1013F000AA1FBB1F0A94D2F788219921AA21BB21D9
:10140000022E04C0B695A795979587950A94D2F7B2
:101410008701021B130B04C0880F991FAA1FBB1F53
:101420000A95D2F7482B592B6A2B7B2B2F5F3F4F06
:1014300028303105B9F64387D394D9869CCF80955F
:101440008323BBCF4F925F926F927F92AF92BF92F6
:10145000CF92DF92EF92FF920F931F93CF93DF9380
:101460006B01EC01CF5DDE4FE881F98140A551A50C
:1014700062A573A54F3F8FEF58076807780779F18A
:1014800080819181DC0112960D911D912D913C91ED
:101490001597ED91FC910190F081E02D0995A881BF
:1014A000B981CD91DC911197E881F981A680B7804F
:1014B0004A885B886C887D8898964D915D916D9186
:1014C0007C919B9700A4F1A5E02DCE010995AB017D
:1014D000BC01830172019601CE01F5010995DF91EE
:1014E000CF911F910F91FF90EF90DF90CF90BF9021
:1014F000AF907F906F905F904F9008950F931F93E0
:10150000CF93DF938F5D9E4FFC01A081B181CD9180
:10151000DC911197E881F9810085118590964D91B4
:101520005D916D917C91939700A4F1A5E02DCE0182
:101530000995AB01BC01CE01F801DF91CF911F915C
:101540000F9109944F925F926F927F92AF92BF92E8
:10155000CF92DF92EF92FF920F931F93CF93DF937F
:101560005B018F5D9E4FFC01A081B181CD91DC912B
:101570001197E881F981C680D7804A885B886C889A
:101580007D8890964D915D916D917C91939700A48B
:10159000F1A5E02DCE010995AB01BC0183017201DB
:1015A0009501CE01F6010995DF91CF911F910F9121
:1015B000FF90EF90DF90CF90BF90AF907F906F90B3
:1015C0005F904F900895DC01ED91FC910084F185CE
:1015D000E02D0994DC01ED91FC910480F581E02D72
:1015E00009944F925F926F927F928F929F92AF92E7
:1015F000BF92CF92DF92EF92FF920F931F93CF9300
:10160000DF9300D000D000D0CDB7DEB79E838D83AE
:101610006A01FC01E75EFE4F40805180628073806A
:10162000DC01ED91FC910684F785E02D099500978A
:1016300009F07AC00D811E810F5D1E4FD801ED911A
:10164000FC9180819181DC01ED91FC910684F7850C
:10165000E02D09954B015C0183E0CC0CDD1C8A95E3
:10166000E1F7F12CE12CD801ED91FC918081918181
:1016700040A151A162A173A1DC01ED91FC91048014
:10168000F581E02D0995672B682B692B09F063C064
:10169000D801ED91FC9180819181DC01ED91FC916B
:1016A00006A0F7A1E02D0995D801ED91FC9180816C
:1016B0009181DC01ED91FC910684F785E02D09957F
:1016C0009B01AC01281939094A095B0929833A832E
:1016D0004B835C83C701B6010E949F23A301920143
:1016E0000E948C2520E030E040EA50E40E94002473
:1016F0000E94FE256B5F7F4F8F4F9F4F29813A815C
:101700004B815C81621773078407950708F0ABCFA4
:10171000AD81BE81ED91FC9111970088F189E02D9A
:10172000CD0109958BEF9FEF26960FB6F894DEBF9B
:101730000FBECDBFDF91CF911F910F91FF90EF9022
:10174000DF90CF90BF90AF909F908F907F906F90E1
:101750005F904F900895AD81BE81ED91FC911197FE
:101760000088F189E02DCD0126960FB6F894DEBFF2
:101770000FBECDBFDF91CF911F910F91FF90EF90E2
:10178000DF90CF90BF90AF909F908F907F906F90A1
:101790005F904F900994AF92BF92CF92DF92EF92F9
:1017A000FF920F931F93CF93DF935C0120E4A20E6F
:1017B000B11CD501CD91DC91209759F128812223CC
:1017C00041F1621711F06596F7CF7C0121966C010B
:1017D000BCE2CB0ED11CF601419151916191719106
:1017E0006F014F3FFFEF5F076F077F0771F0D70172
:1017F0008D919C91088119812A813B81DC01ED91B9
:10180000FC910280F381E02D09952496CA14DB0433
:1018100011F7DF91CF911F910F91FF90EF90DF9023
:10182000CF90BF90AF900895CF93CFB7F8948091A9
:10183000B302811127C0E6E5F1E08491E5E7F1E02C
:101840009491E82FF0E0EE0FFF1FE75DFE4FA591AA
:10185000B491EC91E92321F461E081E10E94FE0161
:1018600061E081E10E942C028CB580618CBD8CB559
:1018700080648CBD61E08FE00E942C0261E080E119
:101880000E942C028091B3028F5F8093B302CFBF7E
:10189000CF9108950C94140CFC0101900020E9F7FD
:1018A0003197AF01481B590BBC018EEE92E00C94AE
:1018B00079038F929F92AF92BF920F931F93CF9312
:1018C000DF93CDB7DEB7A1970FB6F894DEBF0FBE9A
:1018D000CDBF19A2423008F44AE08E010F5D1F4FC0
:1018E000842E912CB12CA12CA50194010E94D82406
:1018F000E62FB901CA01EA30F4F4E05DD801EE93B5
:101900008D01232B242B252B79F790E080E0109775
:1019100019F0CD010E944C0CA1960FB6F894DEBFD1
:101920000FBECDBFDF91CF911F910F91BF90AF90B0
:101930009F908F900895E95CE1CFCF93DF930E9451
:101940004C0CEC0180E592E00E944C0C8C0F9D1F2A
:10195000DF91CF9108952F923F924F925F926F92B5
:101960007F928F929F92AF92BF92CF92DF92EF922F
:10197000FF920F931F93CF93DF9300D000D01F925D
:10198000CDB7DEB79D838C83762E572E642E2983A8
:101990005801FB82EA82242E312C41018C0C9D1CC3
:1019A00021110DC0DC0151968D919C9197FD0796F8
:1019B00033E0959587953A95E1F7880E991E182D95
:1019C000092D8114910411F411E000E0812F902F72
:1019D0000E9432267C01972DD701E72DF52D8E2F01
:1019E000891B861518F481918D93F9CFC701820D5B
:1019F000931DB981BB2309F4C9C0A601B5010E949A
:101A00005C27EC81FD8180819181DC01ED91FC916D
:101A1000AC81BD8198964D915D916D917C919B9724
:101A20004F3F5F4F6F4F7F4F09F0C7C00284F38570
:101A3000E02D42E350E060E070E00995812F902FA7
:101A40000E9432265C01AC81BD818D919C91DC01AC
:101A5000ED91FC910688F789E02D0995EC81FD81D7
:101A600080819181DC011A960D911D912D913C91FF
:101A70001D97448D558D668D778DED91FC9102807B
:101A8000F381E02D0995EC81FD8180819181DC015C
:101A9000ED91FC91008CF18DE02D9501A401B70131
:101AA0000995EC81FD8180819181DC011E960D916B
:101AB0001D912D913C915197448D558D668D778D5B
:101AC000ED91FC910280F381E02D0995EC81FD817F
:101AD00080819181DC01ED91FC91028CF38DE02DF0
:101AE0000995EC81FD8140A551A562A573A5808172
:101AF0009181DC014F3F5F4F6F4F7F4F09F0BBC0BB
:101B0000ED91FC910284F385E02D41E050E060E02E
:101B100070E00995AC81BD815496ED91FC9155978B
:101B2000309709F405C1C114D10409F401C15396D9
:101B30008C91D501A80FB11D8C9109958C01B981AB
:101B4000B11116C0EC81FD816189728977FF02C0F5
:101B5000695F7F4F83E0759567958A95E1F7620D20
:101B6000731D6A0D7B1DA6018A819B810E945C27E3
:101B7000E114F10419F0C7010E94CE26A114B104AA
:101B800009F460C0C5010E94CE265CC0EC81FD81D5
:101B90004189528957FF02C0495F5F4F23E0559545
:101BA00047952A95E1F74C0D5D1DAC81BD811996D5
:101BB0006D917C910E94652724CF0684F785E02DE6
:101BC00009952B013C01EC81FD818081918140A52B
:101BD00051A562A573A5DC01ED91FC910480F5810E
:101BE000E02D0995672B682B692B09F427CFEC8131
:101BF000FD8180819181DC01ED91FC9106A0F7A12E
:101C0000E02D0995EC81FD8180819181DC01ED91D0
:101C1000FC910684F785E02D0995641975098609FC
:101C20009709EC81FD81208D318D428D538D621796
:101C300073078407950738F2C701EF2809F075C0CC
:101C40000FE31DEFC8010F900F900F900F900F90B2
:101C5000DF91CF911F910F91FF90EF90DF90CF9088
:101C6000BF90AF909F908F907F906F905F904F90BC
:101C70003F902F900895ED91FC910484F585E02D1F
:101C800041E050E060E070E00995EC81FD818081E9
:101C90009181DC01ED91FC910684F785E02D099599
:101CA0002B013C01EC81FD818081918140A551A5F2
:101CB00062A573A5DC01ED91FC910480F581E02D16
:101CC0000995672B682B692B09F424CFEC81FD81E2
:101CD00080819181DC01ED91FC9106A0F7A1E02DBE
:101CE0000995EC81FD8180819181DC01ED91FC9170
:101CF0000684F785E02D0995641975098609970909
:101D0000EC81FD81008D118D228D338D601771075F
:101D10008207930738F2E114F10419F0C7010E9419
:101D2000CE26C501AB2809F48BCF0E94CE2688CFE2
:101D300010E000E004CF2F923F924F925F926F929B
:101D40007F928F929F92AF92BF92CF92DF92EF924B
:101D5000FF920F931F93CF93DF9300D01F92CDB7C5
:101D6000DEB79B838A833B01298328011701DC01AD
:101D70001D960D911C911E971F96ED90FC90F7FEFD
:101D800003C0B7E0EB0EF11C33E0F594E7943A950D
:101D9000E1F7C80117FD079623E0959587952A95E9
:101DA000E1F7E80EF91EEC0CFD1C4701E114F1040B
:101DB00019F488248394912CC4010E9432265C017A
:101DC000C4010E9432264C01093011050CF09AC062
:101DD000C501019629812629F5012083AA81BB81AD
:101DE00017962D913C912615370509F093C0A60151
:101DF000B2010E945C27AA81BB818D919C91DC017C
:101E0000ED91FC910688F789E02D0995EA81FB8127
:101E100080819181DC011A960D911D912D913C914B
:101E20001D97448D558D668D778DED91FC910280C7
:101E3000F381E02D0995EA81FB8180819181DC01AC
:101E4000ED91FC91008CF18DE02D9401A701B5017D
:101E50000995EA81FB8180819181DC011E960D91BB
:101E60001D912D913C915197448D558D668D778DA7
:101E7000ED91FC910280F381E02D0995EA81FB81CF
:101E800080819181DC01ED91FC91028CF38DE02D3C
:101E90000995EA81FB81858196818615970589F4EC
:101EA0006585768577FF02C0695F7F4F83E0759512
:101EB00067958A95E1F7680D791DA601C1010E9419
:101EC0005C27A114B10419F0C5010E94CE2681142B
:101ED000910441F1C4010F900F900F90DF91CF91C9
:101EE0001F910F91FF90EF90DF90CF90BF90AF9038
:101EF0009F908F907F906F905F904F903F902F902A
:101F00000C94CE26D5016C92C5010296E9811196FA
:101F1000EC9364CFEA81FB8161857285A6010E9402
:101F2000652769CF0F900F900F90DF91CF911F9190
:101F30000F91FF90EF90DF90CF90BF90AF909F9068
:101F40008F907F906F905F904F903F902F9008956B
:101F50008F929F92AF92BF92CF92DF92EF92FF92B9
:101F60000F931F93CF93DF9300D000D000D01F9228
:101F7000CDB7DEB7FC012F838281811123C0878119
:101F80009085CC24C394D12CF12CE12C8E01095FD7
:101F90001F4F9A01AB01BC01CF010E949B0E2796F7
:101FA0000FB6F894DEBF0FBECDBFDF91CF911F916A
:101FB0000F91FF90EF90DF90CF90BF90AF909F90E8
:101FC0008F9008958785A088982F87FF02C097E09B
:101FD000980F959595959595DE01119691507D01F7
:101FE000E90EF11C97FDFA9497FD12C087010A1BB8
:101FF0001B0B23E0000F111F2A95E1F72781308585
:1020000002C0369527950A95E2F72D939150ECCFB3
:102010002585368537FF02C0295F3F4F490193E090
:10202000959487949A95E1F7B82C2FEF280D90E0BE
:102030008D01020F111D27FD1A95980191501B2D3E
:10204000190F17FD14C089010A1B1B0B000F111F6C
:10205000000F111F000F111F6A017B0104C0F694CD
:10206000E794D794C7940A95D2F7CD92E7CF282F5B
:102070003A2D37FF02C0295F3F4F83E03595279502
:102080008A95E1F7482D420FCC24C394D12CF12C32
:10209000E12C8E01095F1F4F21E0BE016F5F7F4F72
:1020A000CF010E94AB0C7BCFCF93DF93EC01CF5DD0
:1020B000DE4F2FEF47E250E060E070E088819981C9
:1020C0000E94A80F2FEF48E250E060E070E08881A6
:1020D0009981DF91CF910C94A80FCF93DF93EC01FE
:1020E0000E945410E881F9810480F581E02DCE0131
:1020F000DF91CF9109942F923F924F925F926F920E
:102100007F928F929F92AF92BF92CF92DF92EF9287
:10211000FF920F931F93CF93DF9300D000D0CDB7E2
:10212000DEB79C838B837A8369831A01FC01E75EA7
:10213000FE4FC080D180E280F380DC01ED91FC9104
:102140000084F185E02D0995009709F071C00B819D
:102150001C810F5D1E4FD801ED91FC918081918112
:10216000DC01ED91FC910684F785E02D09954B018A
:102170005C01D801ED91FC918081918140A151A138
:1021800062A173A1DC01ED91FC910480F581E02D49
:102190000995672B682B692B09F061C0D801ED9177
:1021A000FC9180819181DC01ED91FC9106A0F7A169
:1021B000E02D0995D801ED91FC9180819181DC01A0
:1021C000ED91FC910684F785E02D09952B013C01EA
:1021D000481859086A087B08A701960160E070E07A
:1021E00080E89FE30E948C2520E030E048EC56E434
:1021F0000E94002420E030E04AEF53E40E942025B2
:102200000E94FE25641575058605970508F0B1CF77
:10221000AB81BC81ED91FC9111970480F581E02D9B
:10222000CD0109958B819C810E9454108AEF9FEF0C
:102230000F900F900F900F90DF91CF911F910F9102
:10224000FF90EF90DF90CF90BF90AF909F908F90D6
:102250007F906F905F904F903F902F900895AB814B
:10226000BC81ED91FC9111970288F389E02DA101C9
:1022700069817A81CD010F900F900F900F90DF91BF
:10228000CF911F910F91FF90EF90DF90CF90BF9073
:10229000AF909F908F907F906F905F904F903F9006
:1022A0002F9009944F925F926F927F928F929F929C
:1022B000AF92BF92CF92DF92EF92FF920F931F9354
:1022C000CF93DF9300D000D000D0CDB7DEB74A0166
:1022D0005B016801DC0112964C911297411121C0FB
:1022E00017966D917C91F12CE12C8901A501940147
:1022F0000E949B0E26960FB6F894DEBF0FBECDBF90
:10230000DF91CF911F910F91FF90EF90DF90CF90D1
:10231000BF90AF909F908F907F906F905F904F9005
:102320000895FC0117850089412F17FF02C047E07F
:10233000410FF42EF594F594F594FE013196FA943C
:10234000BF016F0D711DF7FC7A95F7FC15C0DB011D
:10235000AE1BBF0B3D01B3E0660C771CBA95E1F7ED
:10236000DC0117964D915C9102C0569547956A9491
:10237000E2F74193FA94E9CFDC011D966D917C91CF
:1023800077FF02C0695F7F4FA3E075956795AA95B7
:10239000E1F7E62E4FEF460FF12CDF01A40FB11D40
:1023A00047FDBA95AD01FA94AE2DAF0DA7FD13C050
:1023B000DA01AE1BBF0B73E0AA0FBB1F7A95E1F7E2
:1023C0002401350104C07694679457944794AA95E4
:1023D000D2F74192E8CF412F502F57FF02C0495FFB
:1023E0005F4F73E0559547957A95E1F7460FF12CCD
:1023F000E12C890121E0BE016F5F7F4F0E94AB0C91
:1024000079CF8F929F92AF92BF92CF92DF92EF924D
:10241000FF920F931F93CF93DF9300D000D000D093
:102420001F92CDB7DEB7FC019A01AB011F828281FA
:10243000811121C065817681CC24C394D12CCE0139
:1024400007967C0110E000E0CF010E949B0E8F8177
:1024500027960FB6F894DEBF0FBECDBFDF91CF91A8
:102460001F910F91FF90EF90DF90CF90BF90AF90B2
:102470009F908F90089587851089982F87FF02C0BD
:1024800097E0980F959595959595DE011196915049
:102490007D01E90EF11C97FDFA9497FD12C06701CA
:1024A000CA1ADB0A63E0CC0CDD1C6A95E1F7658192
:1024B000768102C076956795CA94E2F76D93915044
:1024C000ECCF6585768577FF02C0695F7F4F03E0BB
:1024D000759567950A95E1F7062FFF24FA94F60E95
:1024E00090E06D01CF0CD11CF7FCDA94760191508D
:1024F000D02ED90ED7FC13C06701CA1ADB0A73E0CD
:10250000CC0CDD1C7A95E1F749015A0104C0B69460
:10251000A79497948794CA94D2F78D92E8CF282FE6
:10252000312F37FF02C0295F3F4F83E03595279554
:102530008A95E1F7462F420FCC24C394D12CCE01CB
:1025400007967C0110E000E020E0BE016F5F7F4F46
:10255000CF010E94AB0C7BCF8F929F92AF92BF9224
:10256000CF92DF92EF92FF920F93CF93DF930830D9
:1025700008F05DC037E03E1508F459C00E1508F4A8
:1025800056C0AE2CB22E6A017B01EC010E940112F2
:102590000F5F4FEF50E0BA0101C0660F0A95EAF7EE
:1025A00028E030E02A19310902C0559547952A954F
:1025B000E2F7642B062F009568230B21062B202FB2
:1025C000B701A601CE010E94A80F88819981DC0184
:1025D000ED91FC910088F189E02D09954B015C019A
:1025E00088819981DC01ED91FC910088F189E02DD1
:1025F0000995681979098A099B09603D7740810529
:102600009105C0F4B701A601CE010E940112081382
:10261000E7CF90E080E0DF91CF910F91FF90EF90B6
:10262000DF90CF90BF90AF909F908F90089585EFEF
:102630009FEFF1CF80EF9FEFEECFEF92FF920F93DE
:102640001F93CF93DF93EC0188818823A1F18981C7
:10265000882389F120916F042150330B93E0220FDE
:10266000331F9A95E1F72068E12C07E04EE250E035
:1026700060E070E080916004909161040E94AC126F
:102680007C01892B81F402E010E09E014FE250E0D2
:1026900060E070E080916004909161040E945211AA
:1026A00082E080936F04C701DF91CF911F910F915A
:1026B000FF90EF90089587E9E82EFF24FA94F3CF76
:1026C000EF920F93CF93DF93C82FD62F87E0E82E9A
:1026D00007E02C2F47E350E060E070E08091600459
:1026E000909161040E94AC12009781F4E12C2D2F8F
:1026F00048E350E060E070E08091600490916104F4
:102700000E94AC12009711F4C0936D04DF91CF9139
:102710000F91EF900895EF920F93262F8F5D9E4FAC
:1027200032E0E32E04E041E050E060E070E0FC01C4
:10273000808191810E94AC120F91EF900895CF9209
:10274000DF92EF92FF92CF93DF93EC016A017B015E
:1027500020E030E041E953E4CB01B6010E942D2690
:10276000181654F420E030E04AEA53E4C701B601F9
:102770000E949A2387FD29C020E030E847ED53E40A
:10278000C701B6010E942D26181654F420E030E04F
:102790004FEF53E4C701B6010E949A2387FD15C08D
:1027A00020E030E847E554E4C701B6010E942D2639
:1027B00018160CF04BC020E030E04FE754E4C7019E
:1027C000B6010E949A2387FF41C064E0CE010E94B7
:1027D0008B1320E030E040E059E4C701B6010E94CD
:1027E000002420E030E040E05DE30E9400240E94ED
:1027F000FE256B017C01970144275527CF5DDE4FF5
:1028000047E050E060E070E0888199810E94A80F65
:1028100055274F2D3E2D2D2D48E050E060E070E013
:10282000888199810E94A80F2C2D49E050E060E03A
:1028300070E0888199810E94A80F90E080E0DF918C
:10284000CF91FF90EF90DF90CF90089584EF9FEFAE
:10285000F6CFCF93DF93EC01FC01EF5DFE4F61E01B
:10286000808191810E94CB0B64E0CE01DF91CF91FA
:102870000C948B13CF93DF93EC01FC01EF5DFE4FC3
:1028800061E0808191810E94CB0B60E0CE01DF91FD
:10289000CF910C948B13EF920F9346305105610545
:1028A000710550F5202FFC01EF5DFE4F0190F08186
:1028B000E02D942F9195990F842F880F4430510566
:1028C0006105710578F446E0E42EE90E07E0081B87
:1028D00045E250E060E070E0CF010E94AC120F9141
:1028E000EF9008953EE0E32EE90E0FE0081B46E26C
:1028F00050E060E070E0F0CF86EE9FEFF0CFEF9217
:102900000F931F93CF93DF93EC01162FE881F9818A
:102910000480F581E02D09950097B1F41130D1F0D4
:1029200028F01230F1F089EE9FEF0EC0CF5DDE4F40
:1029300025E0E22E06E020E047E350E060E070E0B2
:10294000888199810E94AC12DF91CF911F910F91E4
:10295000EF900895CF5DDE4F95E0E92E06E020E28E
:10296000EBCFCF5DDE4F85E0E82E06E020E4E4CF3C
:10297000EF920F931F93CF93DF93EC01162FE88113
:10298000F9810480F581E02D09950097B9F41130A3
:10299000D9F038F01230F1F0143011F186E99FEFE0
:1029A0000DC0CF5DDE4FE12C01E020E042E050E0C1
:1029B00060E070E0888199810E94AC12DF91CF9134
:1029C0001F910F91EF900895CF5DDE4FE12C01E054
:1029D00023E0ECCFCF5DDE4FE12C01E022E0E6CF3B
:1029E000CF5DDE4FE12C01E021E0E0CF8F929F929E
:1029F000AF92BF92CF92DF92EF92FF920F93CF935D
:102A0000DF93EC016A017B0120E030E0A901CB01FA
:102A1000B6010E949A2387FF08C09AE9C92E99E956
:102A2000D92E99E1E92E9FE3F92E20E030E040E035
:102A30005FE3FE01E75EFE4F6081718182819381D9
:102A40000E940024A70196010E94202520E030E08A
:102A50004AEF53E40E949A2318160CF43FC064E036
:102A6000CE010E948B1320E030E040E059E4C70122
:102A7000B6010E94002420E030E04AEF56E40E94B4
:102A80008C250E94FE254B015C0155274B2D3A2DCC
:102A9000292DCF5DDE4FE12C05E045E050E060E000
:102AA00070E0888199810E94AC126C0107E0282DAA
:102AB00046E050E060E070E0888199810E94AC12AD
:102AC0008C299D29DF91CF910F91FF90EF90DF909E
:102AD000CF90BF90AF909F908F9008958AE99FEF1D
:102AE000F1CF6F927F928F929F92AF92BF92CF92CF
:102AF000DF92EF920F931F93CF93DF936C014A0104
:102B00005B0120E030E040E05FE3CB01B4010E94D4
:102B10002D2687FD63C020E030E046E953E4C5017F
:102B2000B4010E949A2318160CF458C020E030E03B
:102B30004AEF54E4F601E35EFE4F608171818281C9
:102B400093810E940024A50194010E942D2618164D
:102B50000CF047C064E0C6010E948B13A5019401EC
:102B600060E070E08AEF96E40E948C250E94FE25CA
:102B7000162F272FE12C07E043E050E060E070E0E3
:102B800036018FED681A8EEF780AF301808191810A
:102B90000E94AC12EC01212F44E050E060E070E0B4
:102BA000F301808191810E94AC128C2B9D2B0097A8
:102BB00039F4F601E75EFE4F80829182A282B382F1
:102BC000DF91CF911F910F91EF90DF90CF90BF9049
:102BD000AF909F908F907F906F9008958BE99FEFBB
:102BE000EFCF89E99FEFECCFAF92BF92CF92DF9208
:102BF000EF920F93CF93DF935C0164E00E948B13FD
:102C0000009709F068C065018FEDC81A8EEFD80AE9
:102C100084E0E82E07E020E445E250E060E070E068
:102C2000F601808191810E94AC12EC01E12C2FEF22
:102C30004AE250E060E070E0F601808191810E94FC
:102C4000AC12C82BD92B2FEF4BE250E060E070E0C4
:102C5000F601808191810E94AC128C2B9D2B0097F4
:102C6000D1F5C5010E94541062E0F6018081918186
:102C70000E94CB0B2AE143E150E060E070E0F601F6
:102C8000808191810E94AC12EC0125E54AE550E07B
:102C900060E070E0F601808191810E94AC12C82B47
:102CA000D92B20E74CE550E060E070E0F601808130
:102CB00091810E94AC128C2B9D2B009761F460E1F6
:102CC000C501DF91CF910F91EF90DF90CF90BF9032
:102CD000AF900C948B13DF91CF910F91EF90DF9019
:102CE000CF90BF90AF900895CF92DF92EF920F9365
:102CF000CF93DF93EC0164E00E948B13009731F5D2
:102D00006E018FEDC81A8EEFD80A42E0E42E05E07E
:102D100020E045E250E060E070E0F60180819181C2
:102D20000E94AC12009791F4F60180819181CF5CF2
:102D3000DE4F288135E0E32E06E0222371F020E407
:102D400042E050E060E070E00E94AC12DF91CF9171
:102D50000F91EF90DF90CF90089520E6F1CFCF93C1
:102D6000DF93EC01FC01EF5DFE4F62E08081918119
:102D70000E94CB0BCE010E947416009731F460E1E3
:102D8000CE01DF91CF910C948B13DF91CF910895F9
:102D9000CF92DF92EF92FF920F931F93CF93DF9327
:102DA000EC016A017B018C010F5D1E4F63E0F801AD
:102DB000808191810E94CB0BC114D104E104F10404
:102DC00079F197014427552747E050E060E070E033
:102DD000F801808191810E94A80F55274F2D3E2D2B
:102DE0002D2D48E050E060E070E0F8018081918195
:102DF0000E94A80F2C2D49E050E060E070E0F8013F
:102E0000808191810E94A80F6CE0CE01DF91CF916B
:102E10001F910F91FF90EF90DF90CF900C948B1348
:102E2000CE010E947416009779F3DF91CF911F9124
:102E30000F91FF90EF90DF90CF900895AF92BF92E7
:102E4000CF92DF92EF92FF921F93CF93DF937C019B
:102E500060E10E948B1357012FEDA21A2EEFB20AE8
:102E6000D501ED91FC9180819181DC01ED91FC9186
:102E70000284F385E02D4AE050E060E070E00995BF
:102E8000D0E0C0E010E044E250E060E070E0F50126
:102E9000808191810E94011280FBCC24C0F8D12C4A
:102EA000C6010C2E01C0880F0A94EAF7182B219650
:102EB000C830D10541F764E0C7010E948B13812F10
:102EC000DF91CF911F91FF90EF90DF90CF90BF9057
:102ED000AF9008958F5D9E4F44E250E060E070E057
:102EE000FC01808191810E940112682F70E090E0C6
:102EF00080E00E94A12320E030E040E05FE30E94F8
:102F00000024905808950F931F93CF93DF938C0163
:102F1000035D1E4FF8012081EC01C55DDE4F2111DC
:102F20001BC06623C9F09C013C9780819181225D82
:102F30003E4FF901208140E050E0BA01203821F0F5
:102F400048E350E060E070E00E94011290E0998355
:102F5000888381E0F801808388819981DF91CF9116
:102F60001F910F9108954F925F926F927F928F926F
:102F70009F92AF92BF92CF92DF92EF92FF920F9308
:102F80001F93CF93DF9300D000D000D0CDB7DEB732
:102F90004C017B015A01DC01ED91FC910480F5812B
:102FA000E02D09953C01892B09F0A8C0D401ED91D1
:102FB000FC9100A8F1A9E02D61E0C40109956C0124
:102FC000A114B10441F0A816B90608F03FC08A194F
:102FD0009B0965015C012401BFED4B1ABEEF5B0A42
:102FE00047E350E060E070E0F201808191810E944F
:102FF00001128670823011F0843041F440E050E0DC
:10300000BA01D2018D919C910E940112D201ED91E1
:10301000FC91828181111DC06581768110E000E004
:1030200020E030E0A901CF010E949B0EA114B10461
:1030300009F45DC040E050E0BA01F2018081918165
:103040000E940112F1E0AF1AB108F0CFB12CA12C0F
:10305000C2CF77851089672F77FF02C067E0670FBF
:10306000659565956595DE01119661509D01260F68
:10307000311D67FD3A9567FD12C0A9014A1B5B0B24
:1030800003E0440F551F0A95E1F78581968102C040
:10309000969587954A95E2F78D936150ECCF4585DB
:1030A000568557FF02C0495F5F4F33E055954795FE
:1030B0003A95E1F7942F80E08150292F280F27FDC2
:1030C00002C01D92F9CF872F912F97FD079623E01D
:1030D000959587952A95E1F7480F10E000E020E0EC
:1030E000BE016F5F7F4FCF010E94AB0C9FCFF401F9
:1030F000E35DFE4F1082C4010E945410C301269666
:103100000FB6F894DEBF0FBECDBFDF91CF911F91F8
:103110000F91FF90EF90DF90CF90BF90AF909F9076
:103120008F907F906F905F904F9008958F929F92B5
:10313000AF92BF92CF92DF92EF920F931F93CF93F4
:10314000DF935C014B016A01122F64E00E948B1334
:10315000009709F0A5C0C5010E945410E501CF5D9C
:10316000DE4F24E0E22E05E020E281E4C816D1041F
:1031700020F496E0E92E07E020E045E250E060E030
:1031800070E0888199810E94AC12009709F088C094
:10319000F501E25DFE4F8081803841F42C2D40E046
:1031A00050E0BA01888199810E94A80F47E350E05E
:1031B00060E070E0888199810E94011286708230FF
:1031C00011F0843041F4212F40E050E0BA018881B1
:1031D00099810E94A80F860181E4C816D10470F07D
:1031E00087E0E82E07E020E84CE350E060E070E084
:1031F000888199810E94AC120EE110E0940140E0B8
:1032000050E0BA01888199810E94521181E4C81668
:10321000D10440F02FE240E050E0BA01888199816A
:103220000E94A80FF501E65DFE4F80818231A4F473
:1032300063E0888199810E94CB0B6CE0C501DF912E
:10324000CF911F910F91EF90DF90CF90BF90AF90F3
:103250009F908F900C948B13E12C07E02FE043E1BB
:1032600050E060E070E0888199810E94AC126C01AE
:103270002DE54AE550E060E070E0888199810E9488
:10328000AC12C82AD92A2CE74CE550E060E070E087
:10329000888199810E94AC128C299D29009741F266
:1032A000DF91CF911F910F91EF90DF90CF90BF9062
:1032B000AF909F908F900895682F70E090E080E02D
:1032C00040E10C94590C0E945727CF92DF92EF9265
:1032D000FF920F931F934F3F8FEF580768077807B0
:1032E00009F44BC0902F50E0FA01EC59FE4F649165
:1032F000FA01EB5BFE4FE4910111962F97018601D5
:10330000F0E0EE0FFF1FE455FF4FA591B49153E09D
:10331000000F111F221F331F5A95D1F774E0369505
:103320002795179507957A95D1F7492FCD010E94DA
:10333000D51D611571058105910591F06F5F7F4F76
:103340008F4F9F4F24E0660F771F881F991F2A9584
:10335000D1F733E096958795779567953A95D1F7AC
:10336000462F372F282F642F732F822F1F910F91F5
:10337000FF90EF90DF90CF90089540E030E020E0A4
:1033800090E0F1CF1F920F920FB60F9211242F935E
:103390003F938F939F93AF93BF938091D802909167
:1033A000D902A091DA02B091DB023091D70226E077
:1033B000230F2D3758F50296A11DB11D2093D7027A
:1033C0008093D8029093D902A093DA02B093DB02E3
:1033D0008091DC029091DD02A091DE02B091DF02CB
:1033E0000196A11DB11D8093DC029093DD02A09394
:1033F000DE02B093DF02BF91AF919F918F913F9119
:103400002F910F900FBE0F901F90189529E8230F52
:103410000396A11DB11DD2CF1F920F920FB60F922E
:1034200011242F933F934F935F936F937F938F93C9
:103430009F93AF93BF93EF93FF93E0916B01F09154
:103440006C010995FF91EF91BF91AF919F918F9181
:103450007F916F915F914F913F912F910F900FBE90
:103460000F901F9018951F920F920FB60F92112474
:103470002F933F934F935F936F937F938F939F937C
:10348000AF93BF93EF93FF93E0916901F0916A01CD
:103490000995FF91EF91BF91AF919F918F917F918E
:1034A0006F915F914F913F912F910F900FBE0F90B1
:1034B0001F9018951F920F920FB60F9211242F9301
:1034C0003F934F935F936F937F938F939F93AF93AC
:1034D000BF93EF93FF93E0916701F0916801099525
:1034E000FF91EF91BF91AF919F918F917F916F91DC
:1034F0005F914F913F912F910F900FBE0F901F90B2
:1035000018951F920F920FB60F9211242F933F938D
:103510004F935F936F937F938F939F93AF93BF93DB
:10352000EF93FF93E0916501F09166010995FF919A
:10353000EF91BF91AF919F918F917F916F915F912B
:103540004F913F912F910F900FBE0F901F901895A4
:103550001F920F920FB60F9211242F933F934F9308
:103560005F936F937F938F939F93AF93BF93EF93EB
:10357000FF93E0916301F09164010995FF91EF9150
:10358000BF91AF919F918F917F916F915F914F917B
:103590003F912F910F900FBE0F901F9018951F9283
:1035A0000F920FB60F9211248F939F938091E10099
:1035B0009091E100937F9093E10083FF0FC0109200
:1035C000E90091E09093EB001092EC0092E390936D
:1035D000ED001092ED0298E09093F00082FF1CC085
:1035E00093E09093E9009091F200992319F09AE307
:1035F0009093E8009091CF02992329F09091CF0207
:1036000091509093CF029091EC02992329F09091E0
:10361000EC0291509093EC0284FF18C08091E2007C
:103620008E7E81608093E2008091E1008F7E8093A6
:10363000E1008091D0028E7E80618093D0029F91C4
:103640008F910F900FBE0F901F90189580FFF7CFAE
:103650008091E2008E7E80618093E2008091E100A3
:103660008E7E8093E1008091D0028E7E8160E5CFD6
:103670001F920F920FB60F921124CF92DF92EF920A
:10368000FF920F931F932F933F934F935F936F93EB
:103690007F938F939F93AF93BF93EF93FF93CF93BA
:1036A000DF93CDB7DEB76C97DEBFCDBF1092E900D8
:1036B0008091E80083FF2FC089E0FE017596EE2E11
:1036C000DF2E815029F09091F10090833196F9CF4F
:1036D00084E68093EC0282EF8093E8008D8987FF77
:1036E00039C09091E80090FFFCCF982F907609F0B8
:1036F00033C19E894F89588D2F89F88C911131C023
:10370000803861F58091D1028093F1001092F10030
:103710008EEF8093E8006C960FB6F894DEBF0FBE74
:10372000CDBFDF91CF91FF91EF91BF91AF919F916D
:103730008F917F916F915F914F913F912F911F9149
:103740000F91FF90EF90DF90CF900F900FBE0F90F2
:103750001F9018959EEF9093E800C7CF1092F1004C
:10376000D5CF913059F48111D3CF4130510581F635
:103770008091D1028D7F8093D102CACF933049F4DA
:103780008111C6CF4130510519F68091D102826076
:10379000F2CF953041F48091E80080FFFCCF2068A3
:1037A0002093E300B5CF963009F0A8C00B8D1C8D97
:1037B00022E01092E9001092CD021092CC02F21297
:1037C0002EC01092CB021092CA020E9448031F82A0
:1037D00099E09983FA8291E09E8390EA98879AEF24
:1037E00099872091CC023091CD02275F3F4F3C83D7
:1037F0002B838D831092E9001092CD021092CC029F
:103800001093CB020093CA0249E050E0BE016F5F03
:103810007F4F80E00E9422030E94480379CF1093DB
:10382000CB020093CA020E949E01DC0112960D9108
:103830001C910115110509F457C1D801ED91FC91B6
:103840000480F581E02D6E2D7D2DC801099500972E
:1038500009F045C1F80100851185EBCFF3E0FF12B7
:103860000EC08F89882309F440C0823061F440E89B
:103870006CE08CE191E00E94EF02811149CF81E27E
:103880008093EB0048CF813029F440E868E083E181
:1038900091E0F1CF833099F70E949E01DC011296EE
:1038A000ED90FC908E010F5F1F4F6801E114F10451
:1038B00079F0D701ED91FC910680F781E02DB801F8
:1038C000C7010995080F111DF701E084F184EECFBF
:1038D000D8011C92F60101900020E9F73197BF0151
:1038E0006C197D0940E0C601C6CF6DEF70E0FB01A9
:1038F000449150E080E80E9422030ACF973009F4F7
:10390000BECF983021F481E08093F10001CF99304F
:1039100009F0FECE837009F0B2CFECEAF1E081E06D
:1039200031E096E32191222371F08093E9003093F6
:10393000EB00DF0111972C912093EC009093ED00A8
:103940008F5F873079F78EE78093EA001092EA0064
:103950008F898093ED02DCCE8B8D9C8D1092E900D7
:103960001092CD021092CC029093CB028093CA02A7
:10397000898D81119AC08E899D89913A49F481324D
:1039800009F07DCF47E050E06DE671E080E0B3CF15
:10399000913209F074CF833269F48F89988DB0E049
:1039A000A0E080935F0190936001A0936101B093C8
:1039B0006201AECE8032A9F48091E80082FFFCCF94
:1039C00088E0EDE6F1E0815029F09091F1009083DC
:1039D0003196F9CF84E68093EC028BEF8093E80078
:1039E00097CE823209F094CE8F8980937401EEEFE6
:1039F000FFE7859194918B3F9C4D51F1E0E0F8E019
:103A000080916D0190916E01A0916F01B091700154
:103A1000803B9440A105B105F1F48091740180FDD3
:103A20001AC0EE3F8AE0F80789F587E797E79183A8
:103A30008083809160008093CE0288E19BE00FB686
:103A4000F894A895809360000FBE9093600060CEBC
:103A5000EEEFFAE0D5CF808191818737974709F063
:103A600057CEA89580916000886180936000809116
:103A7000CE0280936000EE3F2AE0F20789F0809149
:103A8000FE0A9091FF0A9183808342CE80819181CA
:103A90008737980751F29093FF0A8093FE0AC5CFAB
:103AA0001092FF0A1092FE0A33CE0E949E01DC01A2
:103AB00012960D911C910115110509F4E0CED80163
:103AC000ED91FC910190F081E02D6E2D7D2DC801CE
:103AD000099581111DCEF80100851185ECCF1816CE
:103AE00019060CF415CECBCEF1E0FF12B7CE61E093
:103AF00071E0FDCE1F920F920FB60F9211248F939B
:103B00009F93AF93BF93EF93FF938091C6029091E1
:103B1000C702A091C802B091C902892B8A2B8B2BB6
:103B2000A1F19091C502E091C302F091C40280819D
:103B3000892780838091C6029091C702A091C80214
:103B4000B091C902181619061A061B069CF480913A
:103B5000C6029091C702A091C802B091C902019714
:103B6000A109B1098093C6029093C702A093C8022D
:103B7000B093C902FF91EF91BF91AF919F918F9147
:103B80000F900FBE0F901F901895809171008D7F40
:103B9000809371008091C502E091C302F091C4024C
:103BA0009081809589238083E5CFCF92DF92EF9239
:103BB000FF920F931F93E82FF92F05C001501109B1
:103BC0002109310961F1908196239417B9F305C059
:103BD000015011092109310911F1908196239413A3
:103BE000F7CFC12CD12CE12CF12C0AC08FEFC81AD1
:103BF000D80AE80AF80A0C151D052E053F0579F0CC
:103C000080818623841791F36C2D7D2D8E2D9F2D21
:103C10001F910F91FF90EF90DF90CF90089560E09B
:103C200070E080E090E01F910F91FF90EF90DF90A7
:103C3000CF900895CF93DF93EEEEF2E013821282DD
:103C400088EE93E0A0E0B0E084839583A683B783F9
:103C500086EB91E0918380838FEF9FEF9587848738
:103C600082E490E00E943226EC018AE1EDE7F1E087
:103C7000DE01129601900D928A95E1F788E090E0BE
:103C8000A0E0B0E08C8F9D8FAE8FBF8F87E090E07B
:103C9000A0E0B0E088A399A3AAA3BBA384E090E02E
:103CA000A0E0B0E08CA39DA3AEA3BFA38FEF9FEFD6
:103CB000DC0188A799A7AAA7BBA784E1E7E9F1E0FF
:103CC000DE019C9601900D928A95E1F7FE01E05C81
:103CD000FF4F118210828FE190E00E943226FC019A
:103CE000128213821482158281E090E0A0E0B0E09D
:103CF00086839783A087B1871286138614861586DC
:103D000086879787A08BB18B83E090E0A0E0B0E03E
:103D1000828B938BA48BB58B82E090E0A0E0B0E027
:103D2000868B978BA08FB18F86E292E09183808300
:103D30008EE393E0938F828F80E5848F158E81E0F0
:103D4000868FF983E883EFE3F3E01086118612860D
:103D50006AE473E020E031E0DB01A9011D924150EB
:103D60005040E1F710924A0410924B0410924C0418
:103D700010924D0410924E0410924F041092500471
:103D80001092510410925204109253041092540451
:103D900010925504109256041092570440E054E2D9
:103DA00064E772E4428353836483758320E430E0E4
:103DB0003783268328EC31E0318320834AE959E9AF
:103DC00069E970E4409358045093590460935A048D
:103DD00070935B0440E050E06AEF72E440935C044F
:103DE00050935D0460935E0470935F0440E050E084
:103DF00069ED73E440936204509363046093640438
:103E0000709365041092660410926804109267041F
:103E10009AE09093690410926B0410926A041092D5
:103E20006C0490E890936D0410926E0492E090936D
:103E30006F0480937004D0936104C0936004DF9199
:103E4000CF910895CF93DF9300D01F92CDB7DEB707
:103E5000789484B5826084BD84B5816084BD85B565
:103E6000826085BD85B5816085BD80916E00816071
:103E700080936E0010928100809181008260809317
:103E80008100809181008160809381008091800019
:103E90008160809380008091910082608093910086
:103EA0008091910081608093910080919000816069
:103EB000809390008091C10084608093C1008091C4
:103EC000C10082608093C1008091C10081608093B5
:103ED000C1008091C30081608093C3008091C000C5
:103EE00082608093C0008091C20081608093C20094
:103EF00080917A00846080937A0080917A00826059
:103F000080937A0080917A008E7F80937A008091EE
:103F10007A00806880937A001092ED021092D102AC
:103F20001092D0028091D70081608093D70080EA00
:103F30008093D80089B58F7E89BD89B5826089BD9F
:103F400009B400FEFDCF61E070E080E090E00E94E7
:103F50008D028091D8008F7C80618093D800809101
:103F6000E000807F8093E0008091E1008E7E80936E
:103F7000E1008DE08093E20061E00E942C0261E0AC
:103F80008DE00E94FE018FEF9FEF9093FB028093E4
:103F9000FA0288E78093D20285E58093D3028CE40D
:103FA0008093D40283E38093D502E2EDF2E080E0D7
:103FB00027E092E0E63DF90751F09191892798E0DA
:103FC000382F880F37FD82279150D1F7F2CF809399
:103FD000D602109174016AE070E080E090E00E94E7
:103FE0008D021123B1F36AE070E080E090E00E945E
:103FF0008D0283E592E00E944C0C8091D2020E94D7
:104000005C198AEA92E00E944C0C8091D3020E94D3
:104010005C198AEA92E00E944C0C8091D4020E94C2
:104020005C198AEA92E00E944C0C8091D5020E94B1
:104030005C1983E692E00E944C0C8091D6020E94AB
:104040005C1986E692E00E949D0C0E94140C0E946E
:10405000FC00E0906004F0906104D7018D919C9188
:10406000DC01ED91FC91068CF78DE02D0995F701AF
:1040700080819181DC0116960D911D912D913C91CD
:104080001997448D558D668D778DED91FC9101903A
:10409000F081E02D0995F70180819181DC011E9668
:1040A0000D911D912D913C915197448D558D668DAB
:1040B000778DED91FC910280F381E02D0995E091DF
:1040C0006004F091610480819181DC0112960D9170
:1040D0001D912D913C91159740A151A162A173A111
:1040E000ED91FC910190F081E02D099510E00E9486
:1040F000FC0040E150E060E070E08091600490914D
:1041000061040E940112843209F020C264E08FE34E
:1041100093E00E948B136C01892B09F03DC2A6E04D
:10412000EA2E07E020E041E050E060E070E080919E
:104130006004909161040E94AC126C01892B09F01B
:104140002BC2F4E0EF2E04E020E143E150E060E018
:1041500070E080916004909161040E94AC126C0147
:10416000892B09F019C2E3E0EE2E06E020E042E0E0
:1041700050E060E070E080916004909161040E94E2
:10418000AC126C01E12C01E023E042E050E060E081
:1041900070E080916004909161040E94AC12C82A82
:1041A000D92AC114D10409F0F7C107E024EE49E28D
:1041B00050E060E070E080916004909161040E94A2
:1041C000AC126C01892B09F0E7C120E148E250E014
:1041D00060E070E080916004909161040E94A80FFB
:1041E00002E027E046E250E060E070E08091600489
:1041F000909161040E94AC126C01892B09F0CCC132
:10420000EE24E39407E020E947E350E060E070E04B
:1042100080916004909161040E94AC126C0174E082
:10422000E72E20E04DE350E060E070E08091600414
:10423000909161040E94AC12C82AD92AE12C01E0B5
:1042400022E04DE350E060E070E0809160049091E6
:1042500061040E94AC12C82AD92AC114D10409F001
:104260009BC107E02FEF48E350E060E070E08091F1
:104270006004909161040E94AC126C01892B09F0DA
:104280008BC12FE94CE350E060E070E08091600466
:10429000909161040E94AC126C01892B09F07CC1E1
:1042A0002FEF4AE250E060E070E08091600490916E
:1042B00061040E94AC126C012FEF4BE250E060E011
:1042C00070E080916004909161040E94AC12C82A51
:1042D000D92AC114D10409F05FC120E34FE650E0B0
:1042E00060E070E080916004909161040E94AC12E3
:1042F0006C01892B09F050C140E050E069ED73E496
:104300008FE393E00E949F136C01892B09F044C155
:1043100080E090E0A8E4B2E480935C0490935D04B4
:10432000A0935E04B0935F0440E050E068EC71E459
:104330008FE393E00E9471156C01892B09F02CC169
:1043400020E030E543EC57E4609158047091590443
:1043500080915A0490915B040E949A2329E9C22E0D
:10436000DD24DA9487FF18C164E08FE393E00E94B4
:104370008B136C01892B09F00FC18091660488238F
:1043800009F44CC183E090E01C01B7E02B0E311C16
:10439000E7E0EB8368E1862E912CA12CB12C5CEF39
:1043A000452E55245A94652C752C022C04C0440CBF
:1043B000551C661C771C0A94D2F775016401022C07
:1043C00004C0CC0CDD1CEE1CFF1C0A94D2F702E0EA
:1043D00010E0C701B6010E949F239B01AC0160E081
:1043E00074E284EF9BE40E948C2520E030E04AE7F1
:1043F00054E40E948C259B01AC0160E070E088E4ED
:1044000092E40E941F259F772DEC3CEC4CEC5DE381
:104410000E949A2318160CF404C143E0000F111FE8
:104420004A95E1F72B81202BE12C04E049E150E093
:1044300060E070E080916004909161040E94AC1291
:104440006C01892B09F0A8C080E090E0A8E4B2E4F8
:1044500080935C0490935D04A0935E04B0935F042A
:1044600040E050E068EC71E48FE393E00E94F614C2
:104470006C01892B09F090C064E08FE393E00E9407
:104480008B13209169042E5E2068E12C07E041E146
:1044900050E060E070E080916004909161040E94BF
:1044A000AC126C01892B09F077C085E08093690418
:1044B00020E04CE250E060E070E080916004909178
:1044C00061040E94A80F23E04DE250E060E070E03C
:1044D00080916004909161040E94AC126C01892B60
:1044E00009F05AC060E480E80E9460136C01892BD7
:1044F00009F052C082E189838DEA8A83CE01019658
:104500000E941D136C01892B09F046C060E08FE307
:1045100093E00E94B8146C01892BF1F560E08FE301
:1045200093E00E947F146C01892BB1F534E0E32EF7
:1045300004E020E147E350E060E070E08091600437
:10454000909161040E94AC126C0126C0E09160045D
:10455000F091610480819181DC01ED91FC910284F4
:10456000F385E02D4AE050E060E070E009951F5FC0
:104570001A3009F0BCCDE0916004F09161048081B3
:104580009181DC01ED91FC9100A0F1A1E02D099554
:10459000BEEFCB2EDD24DA9465E080E00E9460134C
:1045A00085E791E00E941D1360E08FE393E00E9495
:1045B000B814C114D10409F04CC088E692E00E94FE
:1045C0009D0C00E010E020E045E050E062ED72E07C
:1045D0008FE393E00E94F10A6C01892B09F06EC011
:1045E00083E992E00E949D0C61E08DE00E94FE0153
:1045F00064E670E080E090E00E948D0260E08DE073
:104600000E94FE016CE677E080E090E00E948D025F
:1046100001151105C1F20E940000D5CF82E090E0A3
:10462000B3CE01501109C40CD51CE61CF71C0F3F7A
:10463000100709F0CECE2B8121502B8381E0281A60
:1046400031082F3F09F0ABCE98E9C92EDD24DA946A
:10465000A3CF8AE792E00E944C0C0D2C000CEE08D0
:10466000FF084AE0C701B601F7FE0DC06DE28EEE0D
:1046700092E00E94FD0366277727CB016C197D0924
:104680008E099F094AE00E94590C80E592E00E9441
:104690004C0C60E08DE00E94FE0162E370E080E07F
:1046A00090E00E948D0261E08DE00E94FE0162E3D5
:1046B00070E080E090E00E948D02EBCF8BE992E009
:1046C0000E944C0C0D2C000CEE08FF084AE0C701BC
:1046D000B601F7FE0DC06DE28EEE92E00E94FD0382
:1046E00066277727CB016C197D098E099F094AE05F
:1046F0000E94590C80E592E00E944C0C8AE0E82E62
:10470000F12C60E08DE00E94FE0162E370E080E049
:1047100090E00E948D0261E08DE00E94FE0162E364
:1047200070E080E090E00E948D0291E0E91AF108CB
:1047300041F768CF0E94DC2308F481E00895E894F3
:1047400009C097FB3EF490958095709561957F4FD9
:104750008F4F9F4F9923A9F0F92F96E9BB27939587
:10476000F695879577956795B795F111F8CFFAF497
:10477000BB0F11F460FF1BC06F5F7F4F8F4F9F4FC8
:1047800016C0882311F096E911C0772321F09EE826
:10479000872F762F05C0662371F096E8862F70E08C
:1047A00060E02AF09A95660F771F881FDAF7880F66
:1047B0009695879597F90895990F0008550FAA0BBC
:1047C000E0E8FEEF16161706E807F907C0F0121624
:1047D0001306E407F50798F0621B730B840B950B27
:1047E00039F40A2661F0232B242B252B21F408957C
:1047F0000A2609F4A140A6958FEF811D811D089519
:104800000E9413240C9484240E94762438F00E9481
:104810007D2420F0952311F00C946D240C947324C6
:1048200011240C94B8240E94952470F3959FC1F331
:10483000950F50E0551F629FF001729FBB27F00D4E
:10484000B11D639FAA27F00DB11DAA1F649F6627A3
:10485000B00DA11D661F829F2227B00DA11D621FF2
:10486000739FB00DA11D621F839FA00D611D221FAC
:10487000749F3327A00D611D231F849F600D211D90
:10488000822F762F6A2F11249F5750409AF0F1F013
:1048900088234AF0EE0FFF1FBB1F661F771F881F7C
:1048A00091505040A9F79E3F510580F00C946D2423
:1048B0000C94B8245F3FE4F3983ED4F38695779543
:1048C0006795B795F795E7959F5FC1F7FE2B880F22
:1048D000911D9695879597F9089597F99F6780E8B8
:1048E00070E060E008959FEF80EC089500240A9442
:1048F0001616170618060906089500240A941216BB
:104900001306140605060895092E0394000C11F4ED
:10491000882352F0BB0F40F4BF2B11F460FF04C09A
:104920006F5F7F4F8F4F9F4F089557FD9058440FF3
:10493000551F59F05F3F71F04795880F97FB991FFE
:1049400061F09F3F79F087950895121613061406BB
:10495000551FF2CF4695F1DF08C016161706180648
:10496000991FF1CF86957105610508940895E89423
:10497000BB2766277727CB0197F908950E94C924A2
:10498000A59F900DB49F900DA49F800D911D1124A3
:104990000895A29FB001B39FC001A39F700D811D18
:1049A0001124911DB29F700D811D1124911D089538
:1049B000A1E21A2EAA1BBB1BFD010DC0AA1FBB1F23
:1049C000EE1FFF1FA217B307E407F50720F0A21B95
:1049D000B30BE40BF50B661F771F881F991F1A9402
:1049E00069F760957095809590959B01AC01BD012C
:1049F000CF010895052E97FB1EF400940E94112507
:104A000057FD07D00E94D82407FC03D04EF40C9425
:104A1000112550954095309521953F4F4F4F5F4F51
:104A2000089590958095709561957F4F8F4F9F4F1A
:104A30000895EE0FFF1F0590F491E02D0994505852
:104A4000BB27AA270E9437250C9484240E94762431
:104A500038F00E947D2420F039F49F3F19F426F4A9
:104A60000C9473240EF4E095E7FB0C946D24E92F6D
:104A70000E94952458F3BA176207730784079507B5
:104A800020F079F4A6F50C94B7240EF4E0950B2EE3
:104A9000BA2FA02D0B01B90190010C01CA01A00190
:104AA0001124FF27591B99F0593F50F4503E68F1EB
:104AB0001A16F040A22F232F342F4427585FF3CF2C
:104AC000469537952795A795F0405395C9F77EF4FD
:104AD0001F16BA0B620B730B840BBAF09150A1F046
:104AE000FF0FBB1F661F771F881FC2F70EC0BA0FCC
:104AF000621F731F841F48F4879577956795B79554
:104B0000F7959E3F08F0B0CF9395880F08F099274E
:104B1000EE0F9795879508950E94A0250C94842404
:104B20000E947D2458F00E94762440F029F45F3FD3
:104B300029F00C946D2451110C94B8240C94732416
:104B40000E94952468F39923B1F3552391F3951BA3
:104B5000550BBB27AA2762177307840738F09F5F9E
:104B60005F4F220F331F441FAA1FA9F335D00E2E0B
:104B70003AF0E0E832D091505040E695001CCAF778
:104B80002BD0FE2F29D0660F771F881FBB1F26173B
:104B900037074807AB07B0E809F0BB0B802DBF0112
:104BA000FF2793585F4F3AF09E3F510578F00C94E1
:104BB0006D240C94B8245F3FE4F3983ED4F38695BB
:104BC00077956795B795F7959F5FC9F7880F911D02
:104BD0009695879597F90895E1E0660F771F881FEE
:104BE000BB1F621773078407BA0720F0621B730BA1
:104BF000840BBA0BEE1F88F7E09508950E949D2460
:104C000088F09F5798F0B92F9927B751B0F0E1F08D
:104C1000660F771F881F991F1AF0BA95C9F714C03D
:104C2000B13091F00E94B724B1E008950C94B724FC
:104C3000672F782F8827B85F39F0B93FCCF3869576
:104C400077956795B395D9F73EF4909580957095D3
:104C500061957F4F8F4F9F4F08950E94DC2308F48A
:104C60008FEF08950F931F93CF93DF9382309105B9
:104C700010F482E090E0E0917304F091740430E06D
:104C800020E0B0E0A0E0309799F42115310509F457
:104C90004AC0281B390B24303105D8F58A819B8105
:104CA0006115710589F1FB0193838283FE0111C0B7
:104CB000408151810281138148175907E0F048175C
:104CC000590799F4109761F012960C931297139666
:104CD0001C933296CF01DF91CF911F910F910895D0
:104CE0000093730410937404F4CF2115310551F02F
:104CF0004217530738F0A901DB019A01BD01DF011A
:104D0000F801C1CFEF01F9CF90937404809373043D
:104D1000CDCFFE01E20FF31F819391932250310911
:104D200039832883D7CF2091710430917204232BCB
:104D300041F42091790130917A01309372042093EB
:104D4000710420917701309178012115310541F4EA
:104D50002DB73EB740917B0150917C01241B350B50
:104D6000E0917104F0917204E217F307A0F42E1B96
:104D70003F0B2817390778F0AC014E5F5F4F2417BF
:104D8000350748F04E0F5F1F509372044093710433
:104D9000819391939FCFF0E0E0E09CCFCF93DF939E
:104DA0000097E9F0FC01329713821282A0917304FC
:104DB000B0917404ED0130E020E01097A1F420815F
:104DC0003181820F931F2091710430917204281752
:104DD000390709F061C0F0937204E0937104DF9128
:104DE000CF910895EA01CE17DF07E8F54A815B818C
:104DF0009E0141155105B1F7E901FB83EA83499111
:104E00005991C40FD51FEC17FD0761F48081918182
:104E10000296840F951FE90199838883828193818B
:104E20009B838A83F0E0E0E012968D919C9113972A
:104E30000097B9F52D913C911197CD010296820F03
:104E4000931F20917104309172042817390739F6A5
:104E5000309751F51092740410927304B093720459
:104E6000A0937104BCCFD383C28340815181840F4E
:104E7000951FC817D90761F44E5F5F4F88819981EC
:104E8000480F591F518340838A819B81938382837A
:104E90002115310509F0B0CFF0937404E093730449
:104EA0009ECFFD01DC01C0CF13821282D7CF81E0FB
:104EB00090E0F8940C946C27FB01DC0102C0019097
:104EC0000D9241505040D8F70895DC0101C06D9318
:0C4ED00041505040E0F70895F894FFCFE7
:104EDC000A526164696F4C696220496E666F0A56AA
:104EEC00657273696F6E3A202022362E362E302E64
:104EFC0030220A506C6174666F726D3A20224172D6
:104F0C006475696E6F20415652220A436F6D706949
:104F1C006C65643A20224A756C2020342032303281
:104F2C003422202230303A30343A31392200FFFF1B
:104F3C00FFFFFFC002C002C002C002C00200E100BD
:104F4C000000000000D39100007504800000FFFFFA
:104F5C0000008000000000000800000008000000B5
:104F6C00000000E8030000FFFFFFFFFFFFFFFFFF53
:104F7C00FFFFFFFFFFFFFFFFFFFFFF00C18081006E
:104F8C00000000000000FD0379031E0413043E041E
:104F9C0022042E0400000000F10A3A142914EA0A33
:104FAC00F415E30A7B1096186D10B317C816AF16DC
:104FBC009F137115F614B8147F144809450942095A
:104FCC003F093C092309230983176A171B09170991
:104FDC00130910090E090B090B090B091E17220ADC
:104FEC0068094B14A20A7E0AA20A7E0A05097304F8
:104FFC00620900000000DC08CD0896083C08170880
:10500C0013080808FC07FA0765194A0CE107CF07D3
:10501C00BE07AA07F808EB08DE04AC04AB04760460
:10502C000D0A000A0A435454207465737420746189
:10503C006720002028002900726164696F20696E66
:10504C00697469616C697A656400726164696F2066
:10505C00696E6974206661696C65642C20636F6489
:10506C00652000545820646F6E65005458206661AA
:0C507C00696C65642C20636F6465200083
:00000001FF
